:020000040800F2
:10000000884D002001050008090300080B030008C3
:100010000F03000813030008170300080000000086
:10002000000000000000000000000000CD010008FA
:100030001D030008000000001102000885200008D0
:100040001B0500081B0500081B0500081B05000810
:100050001B0500081B0500081B0500081B05000800
:100060001B0500081B0500081B0500081B050008F0
:100070001B0500081B0500081B0500081B050008E0
:100080001B0500081B0500081B0500081B050008D0
:100090001B0500081B0500081B0500081B050008C0
:1000A0001B0500081B0500081B0500081B050008B0
:1000B0001B0500085B3A0008EB3D00081B05000823
:1000C0001B0500081B0500081B0500081B05000890
:1000D0001B0500081B0500081B0500080F41000850
:1000E0001B0500081B0500081B0500081B05000870
:1000F0001B0500081B0500081B0500081B05000860
:100100001B0500081B0500081B0500081B0500084F
:100110001B0500081B0500081B0500081B0500083F
:100120001B0500081B0500081B0500081B0500082F
:1001300000F002F800F03AF80AA090E8000C8244BF
:100140008344AAF10107DA4501D100F02FF8AFF29C
:10015000090EBAE80F0013F0010F18BFFB1A43F0A5
:10016000010318470465000024650000103A24BF0D
:1001700078C878C1FAD8520724BF30C830C144BF0C
:1001800004680C607047000000230024002500264E
:10019000103A28BF78C1FBD8520728BF30C148BFEA
:1001A0000B6070471FB51FBD10B510BD04F00AF9F4
:1001B0001146FFF7F7FF00F055F804F028F903B4F3
:1001C000FFF7F2FF03BC03F02DFF0000224B19687C
:1001D0000868B0E8F00F80F30988BFF36F8F4FF025
:1001E000000080F311884EF00D0E704700000000F3
:1001F00006480068006880F3088862B661B6BFF3FD
:100200004F8FBFF36F8F00DF00BF00BF08ED00E02E
:10021000EFF30980BFF36F8F0F4B1A6820E9F00FDF
:10022000106008B54FF0BF0080F31188BFF34F8F07
:10023000BFF36F8F02F0BFFA4FF0000080F3118818
:10024000BDE8084019680868B0E8F00F80F3098835
:10025000BFF36F8F704700BF2C000020EFF30580C5
:10026000704700001CB542F2107003F06DFD0020D5
:1002700002210346B222CDE900100EA1124801F07E
:10028000CFFF002002210346B222CDE900100FA1CA
:10029000134801F0C5FF002003210346B222CDE937
:1002A000001010A1174801F0BBFF02F0E7FB00208F
:1002B0001CBD0000494D55206465636F6465722064
:1002C0007461736B00000000794100085243207292
:1002D00065636569766572207461736B0000000068
:1002E000153600084D61696E206174746974756417
:1002F0006520636F6E74726F6C6C657220746173CD
:100300006B000000233E0008704700BFFEE700BFFF
:10031000FEE700BFFEE700BFFEE77047704770478B
:10032000704700000CB50020019000906B480068F9
:1003300040F480306949086000BF6848006800F4F4
:10034000003000900198401C0190009818B9019865
:10035000B0F5A06FF1D16148006810F4003F02D001
:100360000120009001E0002000900098012842D177
:100370005B48006840F01000594908600846006872
:1003800020F0030008600846006840F002000860A2
:1003900052484068514948600846406848600846ED
:1003A000406840F4806048600846406820F47C1053
:1003B00048600846406840F4E81048600846006815
:1003C00040F08070086000BF4448006810F0007F73
:1003D000FAD04248406820F003004049486008468F
:1003E000406840F00200486000BF3C48406800F0B0
:1003F0000C000828F9D10CBD10B5FFF793FF10BD14
:1004000010B53648006840F00100344908600846DD
:10041000406834490840314948600846006832491C
:1004200008402E4908600846006820F480200860D3
:100430000846406820F4FE0048604FF41F008860C2
:10044000FFF7DAFF4FF000602849086010BD10B5D3
:10045000002100200022214B5B6803F00C0121B138
:10046000042906D0082928D107E0214B214C23601C
:1004700027E01F4B1F4C236023E0184B5B6803F4FD
:100480007010164B5B6803F48032022303EB90403C
:1004900022B9194B4343174C23600DE00F4B5B68A7
:1004A00013F4003F04D0144B4343124C236003E089
:1004B0000F4B43430F4C236003E00D4B0D4C236067
:1004C00000BF00BF054B5B68C3F303130B4CE15C3B
:1004D000084B1B68CB40074C236010BD0010024046
:1004E000002002400000FFF8FFFFF6FE08ED00E0EC
:1004F00000127A000000002000093D0004000020E6
:100500000948804709480047FEE7FEE7FEE7FEE7A7
:10051000FEE7FEE7FEE7FEE7FEE7FEE704480549E3
:10052000054A064B7047000001040008310100082D
:1005300088470020884D00208849002088490020F5
:1005400031490143314A1160704770B500210023E1
:100550000F22C4780CB32D4C246804F4E064C4F575
:10056000E064210AC1F10403CA40447804FA03F1AB
:100570008478144021430901254C0678A15504785C
:1005800004F01F050124AC4005786D114FF0E02602
:1005900006EB8505C5F8004109E0047804F01F0565
:1005A0000124AC401B4D0678761145F8264070BDFD
:1005B000194A0A400243154B1B1F1A60704739B194
:1005C000124A121D12680243104B1B1D1A6006E0EE
:1005D0000E4A121D126882430C4B1B1D1A60704795
:1005E000042808D14FF0E021096941F004014FF0DF
:1005F000E022116107E04FF0E021096921F00401D8
:100600004FF0E022116170470000FA050CED00E0A8
:1006100000E400E080E100E080FFFF1F10B5044629
:10062000CA48844208D10121042000F027FB0021A0
:10063000042000F023FB46E0C548844208D1012194
:10064000082000F01BFB0021082000F017FB3AE017
:10065000C048844208D10121102000F00FFB002186
:10066000102000F00BFB2EE0BB48844208D1012192
:10067000202000F003FB0021202000F0FFFA22E000
:10068000B648844208D10121402000F0F7FA002149
:10069000402000F0F3FA16E0B148844208D101216D
:1006A000802000F0EBFA0021802000F0E7FA0AE059
:1006B000AC48844207D10121801500F0DFFA002107
:1006C000A01500F0DBFA10BD10B50121084600F0BE
:1006D000D5FA0021012000F0D1FA10BD2DE9F0413A
:1006E000024600250026002000230024002791F860
:1006F00003C00CF00F0591F803C01CF0100F03D0DD
:1007000091F802C04CEA050591F800C0BCF1000F59
:1007100031D0146800202BE04FF0010C0CFA00F3EC
:10072000B1F800C00CEA03069E4220D183004FF0CE
:100730000F0C0CFA03F7BC4305FA03FC4CEA040463
:1007400091F803C0BCF1280F06D14FF0010C0CFA50
:1007500000FCC2F814C00AE091F803C0BCF1480FD5
:1007600005D14FF0010C0CFA00FCC2F810C0401C7F
:100770000828D1D31460B1F800C0BCF1FF0F34DDFC
:10078000546800202EE000F1080C4FF0010808FA30
:100790000CF3B1F800C00CEA03069E4221D183009D
:1007A0004FF00F0C0CFA03F7BC4305FA03FC4CEABC
:1007B000040491F803C0BCF1280F05D100F1080C26
:1007C00008FA0CF8C2F8148091F803C0BCF1480F85
:1007D00007D100F1080C4FF0010808FA0CF8C2F834
:1007E0001080401C0828CED35460BDE8F0814FF63D
:1007F000FF710180022181700421C170704702469F
:10080000002093680B4201D0012000E000207047D7
:100810000146886880B2704702460020D3680B42C8
:1008200001D0012000E0002070470146C86880B276
:10083000704701617047416170470AB1016100E092
:1008400041617047C16070474FF480320A43826152
:100850008161826182698269704702460020424B51
:1008600018684FF68073184040EA021008433E4B68
:10087000186070473D49C8617047F0B50A460023CB
:1008800000240021002500F00046B6F1004F02D1FF
:10089000354EF16901E0344E7168C0F3034583B20F
:1008A00000F44016B6F5401F08D121F070612E4EBD
:1008B000766826F070662C4F7E6012E000F4801699
:1008C000B6F5801F06D1032606FA05F4A14341F0D0
:1008D000706106E0460D360103FA06F6B14341F0B9
:1008E000706122B1460D360103FA06F6314300F07D
:1008F0000046B6F1004F02D11B4EF16101E01A4EE5
:100900007160F0BD30B500228B071C0F0F2303FA76
:1009100004F2154B08338C1053F824309343124CD7
:1009200008348D1044F8253023468C1053F82430B9
:100930008C07240F00FA04F423430B4C08348D1069
:1009400044F8253030BD0A4908607047000801406E
:10095000000C01400010014000140140001801404B
:10096000001C014000200140000001400000204226
:10097000DC002042DD48006840F00100DB490860EF
:1009800008464068DA490840D84948600846006887
:10099000D8490840D54908600846006820F48020FE
:1009A00008600846406820F4FE0048604FF41F00CD
:1009B00088607047CD49096821F48031CB4A1160C5
:1009C0001146096821F480211160B0F5803F03D001
:1009D000B0F5802F0ED106E0C449096841F480319A
:1009E000C24A116007E0C149096841F4A021BF4A29
:1009F000116000E000BF00BF704710B50146002243
:100A0000002300204A11012A02D1B84C236806E0D5
:100A1000022A02D1B54C236A01E0B44C636A01F0AA
:100A20001F02012494401C4201D0012000E000205C
:100A300010BD38B5002000900024002500BF3120F3
:100A4000FFF7DBFF05460098401C00900098B0F5CA
:100A5000A06F01D0002DF2D03120FFF7CEFF08B1FA
:100A6000012400E00024204638BD014600209F4AB2
:100A7000106820F0F80040EAC100106070479E49FD
:100A80000860704702460020984B586820F47C109C
:100A900042EA01031843954B58607047964908662F
:100AA000704701460020914A506820F00300084337
:100AB000506070478D48406800F00C007047014658
:100AC00000208A4A506820F0F000084350607047C8
:100AD00001460020854A506820F4E06008435060D9
:100AE000704701460020814A506820F4605040EA77
:100AF000C1005060704729B17C4A527A02437B4B57
:100B00005A7204E0794A527A8243784B5A7270479B
:100B10007A490860704701460020744A506820F402
:100B200040400843506070470021754A11706F4A79
:100B300082F82010012802D0042808D103E0012106
:100B40006F4A117004E005216D4A117000E000BF8A
:100B500000BF70476B49086070476449096A0143E8
:100B6000624A11627047674944390860704730B57E
:100B700000210022002400235C4D6D6805F00C016B
:100B800021B1042905D0082923D105E05E4D056077
:100B900022E05D4D05601FE0544D6D6805F4701254
:100BA000524D6D6805F48034022505EB92421CB964
:100BB000564D554305600BE04C4D6D6815F4003FF4
:100BC00003D0524D5543056002E04F4D554305603B
:100BD00002E04D4D056000BF00BF444D6D6805F05B
:100BE000F00109094A4D6B5C0568DD4045603F4DE9
:100BF0006D6805F4E061090A454D6B5C4568DD40B0
:100C000085603A4D6D6805F46051C90A404D6B5CD2
:100C10004568DD40C560354D6D6805F44041890B80
:100C20003C4D6B5CC568B5FBF3F5056130BD29B182
:100C30002E4A526902432D4B5A6104E02B4A5269F5
:100C400082432A4B5A61704729B1284A926902436C
:100C5000264B9A6104E0254A92698243234B9A61AC
:100C6000704729B1214AD2690243204BDA6104E07E
:100C70001E4AD26982431D4BDA61704729B11B4A73
:100C8000D2680243194BDA6004E0184AD268824302
:100C9000164BDA60704729B1144A12690243134BAC
:100CA0001A6104E0114A12698243104B1A617047BD
:100CB00014494039086070470F49C86470470B49B0
:100CC000C87170470948406A40F08070074948621F
:100CD000704701460020054A92680A4201D001206F
:100CE00000E0002070470149887270470010024000
:100CF0000000FFF8FFFFF6FE00004242D80042422B
:100D0000201002408004424200127A0000093D0097
:100D1000140000202400002010B50446FE48844240
:100D200008D10121C014FFF7A9FF0021E014FFF74B
:100D3000A5FFC4E0B4F1804F08D101210846FFF7B8
:100D4000AAFF00210120FFF7A6FFB8E0F348844284
:100D500008D101210220FFF79EFF00210220FFF7AA
:100D60009AFFACE0EE48844208D101210420FFF74D
:100D700092FF00210420FFF78EFFA0E0E9488442A3
:100D800008D101210820FFF786FF00210820FFF786
:100D900082FF94E0E448844208D101211020FFF74B
:100DA0007AFF00211020FFF776FF88E0DF488442B9
:100DB00008D101212020FFF76EFF00212020FFF73E
:100DC0006AFF7CE0DA48844208D101214014FFF731
:100DD00055FF00216014FFF751FF70E0D5488442B1
:100DE00009D10121C804FFF749FF00214FF4002079
:100DF000FFF744FF63E0D048844209D10121080590
:100E0000FFF73CFF00214FF48010FFF737FF56E05B
:100E1000CA48844209D101214805FFF72FFF00216C
:100E20004FF40010FFF72AFF49E0C548844208D17B
:100E300001214020FFF72FFF00214020FFF72BFF6B
:100E40003DE0C048844208D101218020FFF723FF04
:100E500000218020FFF71FFF31E0BB48844208D10A
:100E600001218015FFF717FF0021A015FFF713FFE1
:100E700025E0B648844209D101210804FFF7FEFEAF
:100E800000214FF48030FFF7F9FE18E0B0488442AB
:100E900009D101214804FFF7F1FE00214FF4003091
:100EA000FFF7ECFE0BE0AB48844208D10121880437
:100EB000FFF7E4FE00214FF48020FFF7DFFE10BDB6
:100EC00000220288944B98420ED0994B98420BD046
:100ED000B0F1804F08D0914B984205D0904B98428A
:100EE00002D0904B984204D14FF68F731A404B8832
:100EF0001A438D4B984207D08C4B984204D04FF642
:100F0000FF431A40CB881A4302808B8883850B8865
:100F10000385814B98420BD0854B984208D08B4B70
:100F2000984205D08A4B984202D08A4B984201D110
:100F30000B7A038601238382704770B50024002258
:100F40000023058C4FF6FE7635400584028C83889D
:100F5000048B4FF68F752C40B51E2C400D882C430A
:100F6000751E2A400D892A434D882A436A4DA8429E
:100F70000BD06F4DA84208D0744DA84205D0744DD7
:100F8000A84202D0734DA84213D14FF6F7752A40FC
:100F90004D892A434FF6FB752A408D882A434FF628
:100FA000FF652B404FF6FF552B408D892B43CD8994
:100FB0002B4383800483CD888586028470BD70B501
:100FC000002400220023058C4FF6EF76354005847F
:100FD000028C8388048B48F6FF752C404FF6FF4542
:100FE0002C400D884FF6FF7606EA05252C434FF678
:100FF000DF752A400D8906EA05152A434D8806EA61
:1010000005152A43444DA84202D0494DA8421DD19E
:101010004FF67F752A404D894FF6FF7606EA051593
:101020002A434FF6BF752A408D8806EA05152A43E4
:101030004FF6FF352B404FF2FF752B408D8906EAA6
:1010400085052B43CD8906EA85052B4383800483E0
:10105000CD880587028470BD70B50024002200236E
:10106000058C4FF6FF6635400584028C8388848B9F
:101070004FF68F752C404FF6FC752C400D882C4395
:101080004FF6FF552A400D894FF6FF7606EA0525F3
:101090002A434D8806EA05252A431F4DA84202D05F
:1010A000234DA8421DD14FF2FF752A404D894FF6BE
:1010B000FF7606EA05252A434FF6FF352A408D883C
:1010C00006EA05252A434EF6FF752B404DF6FF75BF
:1010D0002B408D8906EA05152B43CD8906EA0515B7
:1010E0002B4383808483CD888587028470BD70B54F
:1010F000002200230024058C4EF6FF76354005843F
:10110000038C8488828B48F6FF752A404FF6FF4592
:101110002A400D8820E00000002C0140000400401F
:1011200000080040000C0040001000400014004087
:1011300000340140004C0140005001400054014087
:1011400000180040001C004000200040004001400A
:1011500000440140004801404FF6FF7606EA0525AD
:101160002A434DF6FF752B400D8906EA05352B43C2
:101170004D8806EA05352B43FA4DA84202D0FA4DB8
:10118000A84208D14BF6FF752C408D894FF6FF76AB
:1011900006EA85152C4384808283CD88A0F84050D0
:1011A000038470BD828B4FF2FF331A408283828B9F
:1011B0004FF6FF7303EA01231A4382837047F0B5A9
:1011C0000C461546002200210026078C4EF6FF7CB7
:1011D00007EA0C070784828B018C4FF6FF7707EA3A
:1011E000043640F6FF473A404FF6FF7707EA0527F7
:1011F0003A434FF6FF7707EA03373A43D94FB842ED
:101200000ED0D94FB8420BD0B0F1804F08D0D74F95
:10121000B84205D0D64FB84202D0D64FB84206D118
:101220004DF6FF77394046F48057394305E047F6DD
:10123000FF57394044F48057394382830184F0BD1D
:10124000828B4FF6F3731A408283828B0A43828328
:101250007047F0B50C461546002200210026078C89
:101260004FF6FF6C07EA0C070784828B018C4FF660
:10127000FF7707EA04264FF60C773A404FF6FF77E0
:1012800007EA03172F433A43B64FB8420ED0B64F82
:10129000B8420BD0B0F1804F08D0B44FB84205D05F
:1012A000B34FB84202D0B34FB84206D14FF6FF5702
:1012B000394046F48077394305E04FF2FF57394013
:1012C00044F48077394382830184F0BD028B4FF26E
:1012D000FF331A400283028B4FF6FF7303EA0123A8
:1012E0001A4302837047F0B50C46154600220021D0
:1012F0000026078C4FF6EF7C07EA0C070784028B69
:10130000018C4FF6FF7707EA041640F6FF473A4094
:101310004FF6FF7707EA03373A434FF6FF7707EABE
:1013200005273A438F4FB8420ED08F4FB8420BD0AB
:10133000B0F1804F08D08D4FB84205D08C4FB842E5
:1013400002D08C4FB84206D14FF6DF77394046F0D5
:101350001007394305E04FF65F77394044F0100736
:10136000394302830184F0BD028B4FF6F3731A40B8
:101370000283028B0A4302837047F0B50C46154680
:1013800000220021068C4FF6FE773E400684028B39
:10139000018C4FF60C7632407E1C06EA03162E4373
:1013A0003243704EB0420ED06F4EB0420BD0B0F10F
:1013B000804F08D06D4EB04205D06D4EB04202D085
:1013C0006C4EB04206D14FF6FD76314044F0010636
:1013D000314305E04FF6F576314044F001063143E4
:1013E00002830184F0BD70B505460C465D48854218
:1013F0000ED05D4885420BD0B5F1804F08D05B48D8
:10140000854205D05A48854202D05A48854200D1CB
:1014100000E000BF208850B92389A288618828464F
:10142000FFF7ABFFE1882846FFF79EFF25E0208805
:1014300004280AD12389A28861882846FFF753FF30
:10144000E1882846FFF742FF17E0208808280AD1E4
:101450002389A28861882846FFF7FBFEE188284699
:10146000FFF7EEFE09E02389A28861882846FFF78E
:10147000A6FEE1882846FFF795FE70BD2DE9F041F4
:1014800005460C4600260127608808B9022600E0C0
:101490000026A088012801D1022700E0012720882A
:1014A000A0B92389A28861882846FFF766FFE188F2
:1014B0002846FFF759FF23893A4631462846FFF769
:1014C00012FFE1882846FFF701FF13E02389A28875
:1014D00061882846FFF707FFE1882846FFF7F6FEF8
:1014E00023893A4631462846FFF747FFE1882846D8
:1014F000FFF73AFFBDE8F0810A884B881A438B88D2
:101500001A43CB881A430B891A434B891A438B8998
:101510001A43A0F8442070474FF6FF7181800021E4
:101520000180C180418001727047002101804180AB
:101530008180C180018141818181C1817047002109
:1015400001804180012181800021C180018170479B
:101550000021018041808180C180018141818181A0
:1015600070470000002C014000340140000400409E
:1015700000080040000C004021B1028842F0010246
:10158000028004E002884FF6FE731A400280704722
:1015900031B1B0F8442042F40042A0F8442005E004
:1015A000B0F84420C2F30E02A0F8442070471AB1EC
:1015B00083890B43838102E083898B438381704756
:1015C0008182704741EA0203A0F8483070471AB19F
:1015D00083890B43838102E083898B438381704736
:1015E00001894FF6F8721140018170470A460021C7
:1015F00001894FF68F73194011430181704730B54F
:1016000004460D4629462046FFF7F0FF208940F0AA
:101610000700208130BD2DE9F04104460D461646F5
:101620001F46602D06D13B46012231462046FFF77A
:101630005AFE05E03B46012231462046FFF79DFE5B
:1016400029462046FFF7D2FF208940F0070020817D
:10165000BDE8F08130B50C4600210189C9B24FF6D2
:10166000FF7505EA0325154325432943018130BD54
:101670002DE9F04105460E4617469846002443469C
:101680003A4631462846FFF7E5FF2C894FF6F870B9
:10169000044044F007044FF68F70044044F0700497
:1016A0002C81BDE8F081F0B504460D4616461F4674
:1016B0003B46324629462046FFF7CCFF208940F4BE
:1016C00080402081F0BD0185828270470A4600215A
:1016D00001884FF68F731940114301807047F0B5B0
:1016E0000C4615461E460021002200230189028B6C
:1016F000038C4FF6F877394021434FF6FC473A40C8
:1017000040F201173A434FF6DD773B404FF6FF7743
:1017100007EA06172F433B43018102830384F0BD90
:101720000A460021018B4FF68F7319401143018344
:1017300070470A460021018B48F6FF7319404FF6A7
:10174000FF7303EA02231943018370470A4600210D
:10175000818B4FF68F7319401143818370470A467E
:101760000021818B48F6FF7319404FF6FF7303EA9F
:10177000022319438183704721B1028842F080021D
:10178000028004E002884FF67F731A40028070479F
:1017900021B1828842F00402828004E082884FF600
:1017A000FB731A408280704721B1828842F00802A0
:1017B000828004E082884FF6F7731A408280704777
:1017C00021B1828842F00102828004E082884FF6D3
:1017D000FE731A40828070470A460021018B4FF643
:1017E000F77319401143018370470A460021018BAA
:1017F0004FF2FF7319404FF6FF7303EA02231943B8
:10180000018370470A460021818B4FF6F773194018
:101810001143818370470A460021818B4FF2FF7389
:1018200019404FF6FF7303EA02231943818370477F
:101830000A460021018B4FF6FB73194011430183C7
:1018400070470A460021018B4FF6FF3319404FF6CF
:10185000FF7303EA02231943018370470A460021FC
:10186000818B4FF6FB7319401143818370470A4601
:101870000021818B4FF6FF3319404FF6FF7303EAC7
:1018800002231943818370470A460021018B4FF6DA
:101890007F7319401143018370470A460021018B71
:1018A000C1F30E014FF6FF7303EA022319430183CC
:1018B00070470A460021818B4FF67F731940114310
:1018C000818370470A460021818BC1F30E014FF6D8
:1018D000FF7303EA02231943818370470A460021FC
:1018E000018C4FF6FD7319401143018470470A467D
:1018F0000021018C4FF6F7731940114301847047A2
:101900000A460021018C4FF6DF7319404FF6FF7332
:1019100003EA02131943018470470A460021018C2F
:101920004FF67F7319404FF6FF7303EA0213194312
:10193000018470470A460021018C4FF6FF5319407D
:101940004FF6FF7303EA02231943018470470A46E6
:101950000021018C4FF2FF7319404FF6FF7303EA29
:1019600002231943018470470A460021018C4DF679
:10197000FF7319404FF6FF7303EA023319430184E2
:10198000704730B5002301248C40A3B2048C9C43E3
:101990000484048C02FA01F5ADB22C43048430BDFA
:1019A00030B5002304248C40A3B2048C9C430484EF
:1019B000048C02FA01F5ADB22C43048430BD70B53D
:1019C0000346002000241846183001258D40ACB293
:1019D0001D8CA5431D8409B1082909D100EB6100C4
:1019E000056825F0700505600568154305600EE083
:1019F0000D1FC5F34E052844056825F4E045056034
:101A000005684FF6FF7606EA02263543056070BD8D
:101A100021B1028842F00202028004E002884FF6FF
:101A2000FD731A400280704721B1028842F004021F
:101A3000028004E002884FF6FB731A400280704770
:101A400021B1828842F08002828004E082884FF6D1
:101A50007F731A408280704702884FF6F7731A40EE
:101A6000028002880A430280704782884FF68F7393
:101A70001A40828082880A438280704702894FF62A
:101A8000F8731A40028102890A4302817047028971
:101A90004FF67F731A40028102890A430281704720
:101AA00081847047818570478186704701877047C0
:101AB00081877047A0F84010704702884FF6FF43B7
:101AC0001A40028002880A43028070470146888ECD
:101AD00070470146088F70470146888F704701465E
:101AE000B1F8400070470146888C70470146088D68
:101AF000704702460020138A0B4201D0012000E00B
:101B000000207047CA430282704730B50246002069
:101B100000230024158A05EA0103958905EA0104DA
:101B200013B10CB1012000E0002030BDCA43028295
:101B30007047000010B50446FB48844209D10121DA
:101B40008803FFF79BF800214FF48040FFF796F8D9
:101B500032E0F648844209D101214804FFF79BF89E
:101B600000214FF40030FFF796F825E0F04884425A
:101B700009D101218804FFF78EF800214FF480205D
:101B8000FFF789F818E0EB48844209D10121C80425
:101B9000FFF781F800214FF40020FFF77CF80BE0FD
:101BA000E548844208D101210805FFF774F80021B7
:101BB0004FF48010FFF76FF810BD2DE9F04786B0A5
:101BC00005460E460024A24600BFA1460027B08964
:101BD00000B100BF2F462C8A4CF6FF700440F088FD
:101BE00004432C82AC894EF6F3100440B08831894E
:101BF0000843718908430443AC81AC8A4FF6FF4027
:101C00000440B0890443AC8201A8FEF7B0FFC64887
:101C1000874202D1DDF810A001E0DDF80CA0A88910
:101C200010F4004F08D00AEBCA0000EB0A1031682C
:101C30004900B0FBF1F807E00AEBCA0000EB0A101C
:101C400031688900B0FBF1F86420B8FBF0F00401C2
:101C50002009642101FB1089A88910F4004F08D0E5
:101C6000322000EBC900B0FBF1F000F007000443A4
:101C700008E0322000EB09106421B0FBF1F000F025
:101C80000F0004432C8106B0BDE8F0874FF41651D5
:101C9000016000218180C18001810C2141810021EE
:101CA0008181704710B502460020108A4FF2FF0371
:101CB00018400B884C8823438C882343CC882343CB
:101CC0001843108210BD0021018041808180C180B5
:101CD000704721B1828942F40052828104E08289F6
:101CE0004DF6FF731A4082817047F0B50346002419
:101CF000002600250020A1F510676A3F00D100BF33
:101D00001846C1F3421401F01F06012707FA06F531
:101D1000012C01D10C3004E0022C01D1103000E084
:101D200014301AB107682F43076002E00768AF4319
:101D30000760F0BD1AB1838A0B43838202E0838A75
:101D40008B4383827047028A4FF6F0731A400282F7
:101D5000028A0A430282704782894FF2FF731A4057
:101D6000828182890A438281704721B1828942F04F
:101D70000202828104E082894FF6FD731A4082815B
:101D80007047028A4FF6DF731A400282028A0A43C2
:101D90000282704721B1028A42F48042028204E04A
:101DA000028A4BF6FF731A4002827047C1F30802A1
:101DB0008280704701468888C0F308007047818997
:101DC00041F0010181817047028BD2B20283028B04
:101DD00042EA012202837047028B02F47F420283AF
:101DE000028B0A430283704721B1828A42F02002AB
:101DF000828204E0828A4FF6DF731A408282704743
:101E000021B1828A42F01002828204E0828A4FF677
:101E1000EF731A408282704721B1828A42F0080231
:101E2000828204E0828A4FF6F7731A4082827047FA
:101E300021B1828942F40042828103E08289C2F3A7
:101E40000E028281704721B1828A42F4006282824E
:101E500004E0828A4FF2FF731A4082827047828ABE
:101E60004FF6FB731A408282828A0A43828270474D
:101E700021B1828A42F00202828204E0828A4FF615
:101E8000FD731A408282704702460020B1F5007F40
:101E900000D100BF13880B4201D0012000E00020D8
:101EA000704701F40072B2F5007F00D100BFCA4351
:101EB0000280704770B502460024002300250020F0
:101EC000A1F510666A3E00D100BFC1F3421501F0D2
:101ED0001F03012606FA03F3012D02D19689334030
:101EE00006E0022D02D1168A334001E0968A334083
:101EF0000C12012606FA04F41688344013B10CB112
:101F0000012000E0002070BD10B500220023A1F5E3
:101F100010646A3C00D100BF0A1201249440A3B2AD
:101F2000DC43048010BD0000003801400044004044
:101F300000480040004C00400050004010B54FF4F5
:101F4000A060FEF7FDFA10BD00F1080141604FF0FE
:101F5000FF31816000F10801C16001610021016071
:101F6000704700210161704742684A6093688B6046
:101F7000936859609160086103685B1C0360704757
:101F800010B502460B685C1C01D1106907E002F134
:101F9000080000E04068446824689C42FAD944681C
:101FA0004C604C68A160886041600A611468641CE0
:101FB000146010BD01460A69D1E901309860D1E989
:101FC000010358605068884201D188685060002041
:101FD00008611068401E10601068704700BFBF2085
:101FE00080F31188BFF34F8FBFF36F8F00BF00BF27
:101FF000FEE7001F4FF080730360001F21F0010314
:102000000360001F2B4B03601438026020387047B8
:1020100029484FF0E021486107200861704710B55A
:102020002648006840F47F0024490860084600689C
:1020300040F07F400860FFF7EBFF00202049086078
:10204000FEF7D6F8002010BD704700BFBF2080F318
:102050001188BFF34F8FBFF36F8F00BF1848006820
:10206000401C17490860704715480068401E144915
:1020700008600846006820B9002080F3118800BF7E
:1020800000BF704710B500BFBF2080F31188BFF3B9
:102090004F8FBFF36F8F00BF00F063F920B14FF097
:1020A000805006491C39086000BF002080F3118869
:1020B00000BF10BDDD1F00083F19010020ED00E04A
:1020C0002800002010B5002407E004EB8401FE4A3C
:1020D00002EB8100FFF738FF641C052CF5D3FB48A9
:1020E000FFF732FFFA48FFF72FFFFA48FFF72CFF00
:1020F000F948FFF729FFF948FFF726FFF348F849A9
:102100000860F348F749086010BD10B50446FFF7B2
:102110009CFFF5480068401CF3490860F3480068DC
:1021200040B9F24804600846006801280DD1FFF765
:10213000C9FF0AE0EE48006838B9EC480068C06A98
:10214000E16A884201D8E9480460EA480068401C16
:10215000E849086094F82C1001208840E649096895
:102160000843E5490860E16A01EB8101D64A02EBC8
:102170008100211DFFF7F8FEFFF776FFDC480068BD
:1021800068B1DA480068C06AE16A884207D24FF055
:102190008050DA490860BFF34F8FBFF36F8F10BDD7
:1021A0002DE9FF5F80460E469146DDE90E7A109CD0
:1021B000A9F10100216B01EB800B2BF0070B00252F
:1021C00007E0715D04F134004155705D00B902E033
:1021D0006D1C102DF5D300BF002143200155052FA4
:1021E00000D30427E762201DFFF7BBFE04F11800AF
:1021F000FFF7B7FE2461C7F10500A061646200200B
:10220000606484F8480041465846039AFFF7F1FE9F
:102210002060BAF1000F01D0CAF80040BDE8FF9F6E
:102220002DE9FF4F85B0804689461746DDE912ABA0
:10223000B80000F02EFF064656B14C2000F029FFF2
:1022400004460CB1266304E0304600F075FF00E060
:1022500000247CB10020CDE900ABCDE902403A4634
:1022600049464046089BFFF79BFF2046FFF74DFF7E
:10227000012501E04FF0FF35284609B0BDE8F08F99
:1022800097490968096809B9012100E0002121B1D5
:102290004FF0FF319A4A116006E091490968C96818
:1022A000C868974A41681160704710B50446206BB2
:1022B00000F042FF204600F03FFF10BD70B505461C
:1022C000FFF7C3FE15B98948006800E028460446B8
:1022D000201DFFF76FFE78B9E06A00EB80007A49B5
:1022E00051F8200040B994F82C1001208840824910
:1022F0000968814380480160A06A18B104F11800A0
:10230000FFF758FE7B480068401C7A490860774810
:102310000068844209D1211D6F48FFF725FE7948E6
:102320000068401C7749086009E06F480068401E5B
:102330006D4908602046FFF7B8FFFFF7A1FFFFF7E0
:1023400093FE6B48006858B168480068844207D122
:102350004FF0805069490860BFF34F8FBFF36F8F14
:1023600070BD2DE9F041002767480068002863D15F
:1023700066480068451C654805608DB95848D0F826
:10238000008058480068564908605648C0F80080E8
:102390005F480068401C5E490860FFF771FF00BF9E
:1023A0005748006885423BD300BF4D48006800682D
:1023B00008B9012000E0002020B14FF0FF30504963
:1023C00008602CE046480068C068C4686668B5428A
:1023D00002D24B48066022E0201DFFF7EBFDA06A09
:1023E00018B104F11800FFF7E5FD94F82C10012056
:1023F00088404149096808433F490860E16A01EBA8
:102400008101314A02EB8100211DFFF7ADFD374903
:10241000E06A0968C96A8842C7D30127C5E700BFD7
:1024200032480068C06A00EB8000274951F820005C
:10243000012800D9012704E036480068401C3549CE
:1024400008603548006800B101273846BDE8F081D2
:1024500070B500240026FFF7F8FD2B480068401EE9
:10246000294908600846006800287BD11E4800689A
:10247000002877D024E01748C068C46804F1180029
:10248000FFF798FD201DFFF795FD94F82C10012013
:10249000884019490968084317490860E16A01EB57
:1024A0008101094A02EB8100211DFFF75DFD0F4903
:1024B000E06A0968C96A884202D3012016490860A7
:1024C0000448006850BB2AE0C0000020240100201E
:1024D000380100204C010020600100207401002020
:1024E0006000002064000020340000202C00002048
:1024F00040000020500000203C00002004ED00E0DF
:1025000054000020300000205C0000203800002033
:102510004C000020440000204800002001E0012081
:1025200000E000200028A6D00CB1FFF7A9FEFD486E
:10253000056865B100BFFFF714FF10B10120FA492B
:1025400008606D1E002DF6D10020F6490860F6489F
:10255000006838B101263007F4490860BFF34F8F97
:10256000BFF36F8FFFF780FD304670BD2DE9F0415E
:1025700005460E46EE480768EE480068001DFFF766
:1025800019FD50B9EB48006890F82C1001208840E4
:10259000E94909688143E8480160681C07D136B100
:1025A000E4480168091DE548FFF7DEFC1AE07C19E4
:1025B000E04800684460BC4207D2DE480168091D5B
:1025C000DF480068FFF7DCFC0CE0DA480168091D11
:1025D000DC480068FFF7D4FCDB480068844201D285
:1025E000D9480460BDE8F081D8480068401CD7494C
:1025F000086070472DE9F047044688464FF000090F
:10260000FFF7F2FFCA480668206800EB080520685B
:10261000B04207D92068A8420BD9B54209D94FF07A
:10262000010906E02068A84201D8B54201D94FF05F
:1026300001092560B9F1000F03D0A81B0021FFF7A5
:1026400095FFFFF705FF07463FB94FF08050B749A8
:102650000860BFF34F8FBFF36F8FBDE8F08770B591
:102660000446002544B1FFF7BFFF00212046FFF7D5
:102670007DFFFFF7EDFE05463DB94FF08050AB49B9
:102680000860BFF34F8FBFF36F8F70BD70B5044606
:10269000FFF7DBFC14B9A748006800E020460646B7
:1026A000F56AFFF7E1FC284670BD70B5024600BF31
:1026B000BF25EFF3118485F31188BFF34F8FBFF36C
:1026C0006F8F00BF214612B99A4C246800E014466F
:1026D0002346D86A00BF81F3118800BF70BD2DE981
:1026E000F04780460D464FF00009052D00D3042524
:1026F000FFF7ABFCB8F1000F02D18E48006800E094
:1027000040460446E66AAE4251D0B5420BD98948EC
:10271000006884420DD087480068C06AA84208D883
:102720004FF0010905E083480068844201D14FF071
:102730000109E76AE562A06910F0004F02D1C5F116
:102740000500A06107EB8701814A02EB8101606906
:10275000884201D1012000E00020E0B1201DFFF7F8
:1027600029FC30B90120B840734909688143724897
:10277000016094F82C10012088406F4909680843D3
:102780006D490860E16A01EB8101714A02EB810049
:10279000211DFFF7E9FBB9F1000F07D04FF0805082
:1027A00062490860BFF34F8FBFF36F8F00BFFFF721
:1027B0005BFCBDE8F0876548006818B101205A4904
:1027C00008601DE00020584908605B480068B0FAC6
:1027D00080F0C0F11F0101EB81025D4B03EB820031
:1027E00042685268426000F108024368934202D195
:1027F0004268526842604268D2684E4B1A6000BF1D
:10280000704770B50546FFF720FC15B949480068C8
:1028100000E028460446201DFFF7CCFB78B9E06AAB
:1028200000EB80004A4951F8200040B994F82C1080
:10283000012088404049096881433F480160A06AFF
:1028400018B104F11800FFF7B5FB211D3B48FFF755
:102850008BFBFFF709FC3F48006828B1FFF7F5FB49
:10286000FFF70EFDFFF700FC32480068844217D1E5
:102870003848006840B14FF080502C490860BFF3E1
:102880004F8FBFF36F8F0BE02C4800683249096807
:10289000884203D100202749086001E0FFF78BFF41
:1028A00070BD10B5014600200A46244C5369A3426E
:1028B00001D1012300E0002373B1284C936AA342A5
:1028C00001D1012300E0002333B9936A0BB901233E
:1028D00000E0002303B1012010BD70B505462C4671
:1028E000F4B31448006884424BD0FFF7AEFB204697
:1028F000FFF7D7FFA8B3201DFFF75CFB94F82C105F
:10290000012088400C49096808430B490860E16AC6
:1029100001EB81010E4A02EB8100211DFFF724FB30
:1029200004491FE0440000204800002004ED00E0BE
:10293000380000202C0000203C0000207401002002
:102940006400002060000020540000205C00002093
:10295000C000002040000020340000204C01002076
:102960000FE00CE0E06A0968C96A884207D34FF0BB
:102970008050FE490860BFF34F8FBFF36F8FFFF7A2
:1029800073FB70BD2DE9F04106460027344600BFB9
:10299000BF21EFF3118081F31188BFF34F8FBFF395
:1029A0006F8F00BF05462046FFF77BFF20B3F0483E
:1029B0000068E0B9EF49E06A0968C96A884200D353
:1029C0000127201DFFF7F6FA94F82C10012088400B
:1029D000E94909680843E8490860E16A01EB8101B7
:1029E000E64A02EB8100211DFFF7BEFA04E004F184
:1029F0001801E348FFF7B8FA00BF85F3118800BF5C
:102A00003846BDE8F08170B523E0FFF7EDFDDD4805
:102A1000006808B9012000E000200546FFF718FD16
:102A2000BDB9FFF712FBD748C068C468201DFFF787
:102A3000C1FAD5480068401ED3490860D3480068F1
:102A4000401ED2490860FFF70FFB2046FFF72DFC20
:102A500000BFCE4800680028D7D170BD00BFFFF787
:102A6000D2FFC64800680128F9D94FF08050BF490D
:102A70000860BFF34F8FBFF36F8FF0E71CB5C448FA
:102A800000210B468022CDE90010C2A1C348FFF708
:102A9000C7FB0446012C14D100BFBF2080F311886E
:102AA000BFF34F8FBFF36F8F00BF4FF0FF30BC49B4
:102AB00008600120BB4908600020BB490860FFF79F
:102AC000AEFA1CBD10B500BFBF2080F31188BFF364
:102AD0004F8FBFF36F8F00BF0020B2490860FFF730
:102AE000B3FA10BDB049086870470021AE4A1068BB
:102AF0007047A54800687047014611B99D480068B5
:102B000000E00846024602F13400704770B5054601
:102B10000C469848016818312846FFF731FA012120
:102B20002046FFF723FD70BD70B506460C461546DE
:102B300044F000408F49096888618E480168183167
:102B40003046FFF711FA01212846FFF70FFD70BD4F
:102B500070B50646F068C46804F11800FFF72AFA59
:102B600083480068A8B9201DFFF724FA94F82C10B8
:102B7000012088408049096808437F490860E16A6C
:102B800001EB81017D4A02EB8100211DFFF7ECF989
:102B900004E004F118017A48FFF7E6F97549E06AA4
:102BA0000968C96A884204D9012501207F49086063
:102BB00000E00025284670BD2DE9F04105460F468E
:102BC00047F000402860EC682846FFF7F3F9201D25
:102BD000FFF7F0F994F82C10012088406649096845
:102BE000084365490860E16A01EB8101634A02EB31
:102BF0008100211DFFF7B8F95E49E06A0968C96ADA
:102C0000884204D9012601206849086000E00026B6
:102C10003046BDE8F081664909680160624909688B
:102C20004160704770B504460D46FFF70EFA5E48E6
:102C300002682868401C01D1002619E05C49206820
:102C40000968884204D06068904201D801260FE0EC
:102C50006068101A2968884209D228686168511A88
:102C6000401A28602046FFF7D6FF002600E0012624
:102C7000FFF7FAF9304670BD01204C4908607047F3
:102C80003C49086870473B490968886939490968BF
:102C9000C96AC1F10501374A12689161704770B580
:102CA00006460D46FFF7D1F932480068406C88B9F6
:102CB00001203049096881F848005DB101212846AA
:102CC000FFF754FC4FF0805028490860BFF34F8F46
:102CD000BFF36F8FFFF7C8F9FFF7B7F92548006812
:102CE000446C4CB126B1002022490968486403E0D5
:102CF000601E20490968486400201E49096881F85F
:102D00004800FFF7B1F9204670BD2DE9F0410746B4
:102D1000884614461D46FFF798F91648006890F853
:102D20004800022818D01349096801F14400496C91
:102D3000B943016001200F49096881F848005DB17D
:102D400001212846FFF712FC4FF080500749086028
:102D5000BFF34F8FBFF36F8FFFF786F9FFF775F95A
:102D60001CB104480068406C206023E004ED00E0E2
:102D70005C0000202C0000203C000020C00000204F
:102D80004C010020600100203400002030000020B1
:102D90005800002049444C45000000005D2A00080E
:102DA000540000204000002038000020480000208F
:102DB0004C000020A548006890F84800012801D187
:102DC000002608E0A149096801F14400496C21EAA4
:102DD00008010160012600209C49096881F848002B
:102DE000FFF742F93046BDE8F0812DE9F047814612
:102DF0000D4616461F464FF0010A4C46FFF725F9CF
:102E00000FB1606C386094F84880022084F8480064
:102E1000052E17D2DFE806F01503070B0D00606CD6
:102E2000284360640EE0606C401C60640AE06564E6
:102E300008E0B8F1020F01D0656401E04FF0000A2C
:102E400000E000BF00BFB8F1010F22D1201DFFF745
:102E5000B1F894F82C10012088407D490968084396
:102E60007B490860E16A01EB81017A4A02EB81004B
:102E7000211DFFF779F87549E06A0968C96A884237
:102E800007D94FF0805074490860BFF34F8FBFF3EC
:102E90006F8FFFF7E9F85046BDE8F0872DE9F84F4E
:102EA00083460D4616461F46DDF828A001200090F7
:102EB0005C4600BFBF21EFF3118081F31188BFF39F
:102EC0004F8FBFF36F8F00BF81460FB1606C3860CA
:102ED00094F84880022084F84800052E17D2DFE8D5
:102EE00006F01503070B0D00606C284360640EE0CC
:102EF000606C401C60640AE0656408E0B8F1020F91
:102F000001D0656401E00020009000E000BF00BF38
:102F1000B8F1010F2DD151480068A8B9201DFFF765
:102F200049F894F82C100120884049490968084361
:102F300047490860E16A01EB8101464A02EB8100E2
:102F4000211DFFF711F804E004F118014448FFF7D0
:102F50000BF83E49E06A0968C96A884209D9BAF1A2
:102F6000000F03D00120CAF8000002E001203D4913
:102F7000086000BF89F3118800BF0098BDE8F88F92
:102F80002DE9F04105460E462C4600BFBF21EFF368
:102F9000118081F31188BFF34F8FBFF36F8F00BF94
:102FA000074694F84880022084F84800606C401C72
:102FB0006064B8F1010F2AD128480068A8B9201D23
:102FC000FEF7F8FF94F82C1001208840204909688A
:102FD00008431F490860E16A01EB81011D4A02EBC9
:102FE0008100211DFEF7C0FF04E004F118011C4818
:102FF000FEF7BAFF1549E06A0968C96A884206D92E
:1030000016B10120306002E001201649086000BFBF
:1030100087F3118800BFBDE8F08170B5054615B98A
:103020000A48006800E028460646FFF70EF896F8C2
:103030004800022804D1002086F84800012400E05E
:103040000024FFF711F8204670BD00002C0000207E
:103050003C000020C000002004ED00E05C000020E7
:103060004C01002048000020434A22F00700434A58
:1030700010600022414B5A6044F2F832404B5A60D3
:1030800000221A60014644F2F8324A601A460A6089
:1030900070472DE9F04104464FF00008FFF7A4FA0D
:1030A0003848006820B9FFF7DFFF01203549086084
:1030B00044B1083414F0070F04D004F00700C0F145
:1030C00008000444002C32D044F2F83084422ED25E
:1030D0002A4F3846056801E02F462D686868A042EF
:1030E00002D228680028F7D1254885421FD03868C9
:1030F00000F10808286838606868001B102810D99B
:103100002E196868001B70606C6071681B4800E0D5
:103110000068026852688A42FAD302683260066028
:1031200000BF194968680968081A17490860FFF75D
:103130008FF94046BDE8F08170B506463546B6B118
:10314000083D2C46FFF750FA61680C4800E0006823
:10315000026852688A42FAD30268226004600A490F
:1031600060680968084408490860FFF771F970BD94
:1031700005480068704770479001002070000020EB
:10318000780000206C0000206800002030B589B075
:1031900004460D4601210846FDF763FD0121042088
:1031A000FDF752FD0120ADF8200018208DF8230016
:1031B00003208DF8220008A94C48FDF78FFA022061
:1031C000ADF8200018208DF8230003208DF8220090
:1031D00008A94648FDF782FA0420ADF8200018201F
:1031E0008DF8230003208DF8220008A93F48FDF741
:1031F00075FA0820ADF8200018208DF82300032070
:103200008DF8220008A93948FDF768FAADF8184092
:10321000ADF814500020ADF81A00ADF8160005A95D
:103220004FF08040FDF74CFE6020ADF80400012017
:10323000ADF806000020ADF80C0001A94FF0804069
:10324000FDF77BFE0821C806FEF7C6FA6020ADF840
:1032500004000120ADF806000020ADF80C0001A923
:103260004FF08040FDF7ABFE0821C806FEF7BDFA1F
:103270006020ADF804000120ADF806000020ADF894
:103280000C0001A94FF08040FDF7E6FE0821C806BA
:10329000FEF7B8FA6020ADF804000120ADF8060092
:1032A0000020ADF80C0001A94FF08040FDF71FFF92
:1032B0000821C806FEF7AFFA01218807FEF75CF97E
:1032C00021464FF08040FEF7EFFB21464FF0804053
:1032D000FEF7ECFB21464FF08040FEF7E9FB21466C
:1032E0004FF08040FEF7E6FB09B030BD000801401A
:1032F000F0B505ACF0CC016042608360C4604FF073
:10330000000CC0F810C0C0F814C0C0F818C0C0F855
:103310001CC0056246628762F0BD00210161416107
:103320008161C16170472DE9F04F85B004460E46BA
:1033300015462846A16902F051FF0490216AE06811
:1033400002F064FC0390A068039902F0D3FC83466A
:10335000049902F03BFE8146216AE06802F056FCC7
:103360000490E068049902F0C5FC8346616902F0AC
:103370002DFE8246494602F049FC804629463046E9
:1033800002F02CFF0390216A606802F01FFE029099
:10339000039902F01BFE83462946304602F01EFFC9
:1033A0000090E16902F01AFF0190A16902F02EFC81
:1033B0000290216802F00AFE0390216902F026FCC7
:1033C0005946049002F022FC8246414602F006FF74
:1033D0008146616902F01AFC07463846A16A02F08C
:1033E000C1FE01D2A76A05E03846616A02F0BAFD63
:1033F00000D2676A2761A561E661C4F81480384687
:1034000005B0BDE8F08F2DE9FC5F04460D46164679
:103410003146284602F0E2FE8146216A606802F0E9
:10342000D5FD8246494602F0D1FD80463146284608
:1034300002F0D4FE0090E16902F0D0FE8346A1695B
:1034400002F0E4FB8246216802F0C0FD814621695A
:1034500002F0DCFB4146019002F0D8FB07463846FB
:10346000A16A02F07FFE01D2A76A05E03846616AD0
:1034700002F078FD00D2676A2761A661E5613846EF
:10348000BDE8FC9F2DE9F04104460D461646314645
:10349000284602F0A3FE8046216802F097FD074609
:1034A0003846BDE8F08100002DE9F84F82464FF024
:1034B0007E51504602F0AAFB009002F07BFB804652
:1034C0003B4A3C4B02F04CF9064600223A4B02F0D4
:1034D00047F9044602F0B0F81FFA80FB59464FF056
:1034E0008040FEF7E1FABDE8F88F2DE9F84F8246FB
:1034F0004FF07E51504602F089FB009002F05AFBDB
:1035000080462B4A2B4B02F02BF9064600222A4B11
:1035100002F026F9044602F08FF81FFA80FB5946A4
:103520004FF08040FEF7C2FABDE8F88F2DE9F84F62
:1035300082464FF07E51504602F068FB009002F048
:1035400039FB80461A4A1B4B02F00AF90646002254
:10355000194B02F005F9044602F06EF81FFA80FBE1
:1035600059464FF08040FEF7A3FABDE8F88F2DE9E9
:10357000F84F82464FF07E51504602F047FB0090D4
:1035800002F018FB80460A4A0A4B02F0E9F80646A8
:103590000022094B02F0E4F8044602F04DF81FFA4D
:1035A00080FB59464FF08040FEF784FABDE8F88F63
:1035B0004A0C022B8716A93F00D0CD402DE9F047D9
:1035C00004460D462946204602F000FD8046FE498D
:1035D000204601F0BBFA814629464FF07E5002F0AA
:1035E000FDFD8246494602F0F1FC0746414602F0E5
:1035F0000DFB06463046BDE8F087F4494988418016
:10360000F24989888180F149C988C180EF490989D7
:103610000181704788B0FFF733FBED4908601DE179
:1036200005A8FFF7EAFFBDF91C10A1F5BE6002F086
:1036300081FC8146E74902F05DFB044602F0BAFADC
:103640000746E54AE54B02F08BF8054601F07EFDA2
:103650000490BDF91810A1F5BE6002F06BFC814624
:10366000DC4902F047FB044602F0A4FA0746DA4AB6
:10367000DA4B02F075F8054601F068FD0290BDF9DD
:103680001610A1F5BE6002F055FC8146D14902F04A
:1036900031FB044602F08EFA07460022D04B02F0BE
:1036A0005FF8054601F052FD0190BDF91A10A1F531
:1036B0008C6002F03FFC0546CA4902F01BFB044641
:1036C0004FF07E5102F082FC0390049802F072FAEF
:1036D0000446C14AC14B02F041F901D2C2480490EC
:1036E000049802F067FA0446BB4AC04B01F0FCFFA5
:1036F00001D2BF480490029802F05CFA0446B64A30
:10370000B64B02F02BF901D2B7480290029802F0B2
:1037100051FA0446B04AB54B01F0E6FF01D2B44875
:103720000290019802F046FA04460022AC4B02F0E7
:1037300015F902D24FF07F500190019802F03AFA49
:1037400004460022AB4B01F0CFFF02D29E4840421C
:1037500001904FF07E51039802F004FD02D24FF029
:103760007E5003900021039802F0FCFB01D2002060
:103770000390A1490498FFF721FFA04908609E49E2
:103780000298FFF71BFF9D4948609B490198FFF78E
:1037900015FF9A4988609A490398FFF70FFF9949E6
:1037A00008600846006802F005FA0446964A974BFE
:1037B00001F09AFF21D29149086802F0FBF9044612
:1037C000934A944B01F090FF17D28C49486802F05D
:1037D000F1F904468E4A8F4B01F086FF0DD28749DE
:1037E000886802F0E7F904464FF0CC328A4B02F0C9
:1037F000B5F802D20120894908708248006802F0B9
:10380000D9F90446804A814B01F06EFF21D27B49F1
:10381000086802F0CFF904467D4A814B02F09EF819
:1038200017D27649486802F0C5F90446784A794BC0
:1038300001F05AFF0DD27149886802F0BBF90446C5
:103840004FF0CC32774B01F04FFF02D2002073498A
:1038500008704FF0FF310120FFF721FAE0E6674BD7
:103860001B680360654B5B684360644B9B688360C7
:10387000644B1B680B60694B1B781370704730B545
:1038800089B005460C4601210220FDF7EAF9012125
:103890000420FDF7D9F901210820FDF7D5F94020D2
:1038A000ADF8140028208DF8170005A95E48FCF734
:1038B00015FF40215C48FCF7BEFF8020ADF81400E6
:1038C00028208DF8170005A95748FCF707FF80212D
:1038D0005548FCF7B0FF0120ADF8140028208DF802
:1038E000170005A95148FCF7F9FE01214F48FCF7E4
:1038F000A2FF0220ADF8140028208DF8170005A9BA
:103900004A48FCF7EBFE02214848FCF794FFADF86B
:103910000C50ADF808400020ADF80E00ADF80A00DC
:1039200002A94348FDF7CCFA0020ADF81800ADF825
:103930001A000120ADF81C000020ADF81E00ADF803
:10394000200006A93A48FDF74EFD0420ADF8180006
:103950000020ADF81A000120ADF81C000020ADF8E1
:103960001E00ADF8200006A93148FDF73CFD0820F7
:10397000ADF818000020ADF81A000120ADF81C00C9
:103980000020ADF81E00ADF8200006A92848FDF77C
:103990002AFD0C20ADF818000020ADF81A00012017
:1039A000ADF81C000020ADF81E00ADF8200006A9FF
:1039B0001F48FDF718FD1D208DF8040002208DF82A
:1039C0000500002036E00000000040409E45002039
:1039D000880000200000C84323DBF97E6ABCE03F7A
:1039E0000000F83F0000484454E3053F6ABCE0BFD4
:1039F00054E305BF0000F8BF3333333F8845002050
:103A0000CDCCCC3E8C0000209A9999999999B93FD8
:103A1000F7065F984C15D4BFCCCCEC3F800000205B
:103A20004C15D43FCCCCECBF00080140000C014049
:103A3000000400408DF8060001208DF8070001A861
:103A4000FCF783FD01221E215C48FDF7B0FD01213A
:103A50005A48FDF791FD09B030BD08B5002000902F
:103A600010215648FEF751F8F0B15548007880B162
:103A70000020534908705148FEF731F800B251490F
:103A8000488001205049087000214C48FDF76CFF28
:103A90000AE000214948FEF703F801204849087070
:103AA00002214648FDF760FF47480078002876D09D
:103AB00008214248FEF729F8D8B14448007868B197
:103AC0000020424908703D48FEF706F800B23D4923
:103AD000888000213948FDF72DFF0AE00021374892
:103AE000FDF7DEFF01203949087002213348FDF758
:103AF00021FF04213148FEF708F8D8B13448007896
:103B000068B10020324908702C48FDF7E2FF00B28E
:103B10002C49C88000212948FDF7F2FE0AE0002167
:103B20002648FDF7BDFF01202949087002212348DE
:103B3000FDF7E6FE02212148FDF7E7FF18B325480F
:103B4000007808B30020234908701F4908701B48FB
:103B5000FDF7BCFF00B21B490881084640881E499A
:103B600048801848808888801648C088C8801548D2
:103B700000890881694619480068FFF701FA0021A9
:103B80000E48FDF7ABFE0AE000210C48FDF788FF68
:103B900001201049087002210848FDF79FFE1E21F0
:103BA0000648FDF7C3FF009838B14FF080500C492C
:103BB0000860BFF34F8FBFF36F8F08BD0004004054
:103BC0008400002094450020850000208300002010
:103BD00082000020810000209E45002088000020F7
:103BE00004ED00E02DE9F04105460E46144631464D
:103BF000284602F0B7F901D2304600E028460746D1
:103C00003946204602F0AEF902D22046BDE8F081E6
:103C10003146284602F0A6F901D23046F6E728469A
:103C2000F4E72DE9F04F89B005460E4691469A46D5
:103C3000139C4FF07E50129902F0C8F90090616811
:103C400002F0CCFA0190A16802F0C8FA834601F0B4
:103C5000B1FF00223B4BCDE9020101F0A9FA074672
:103C600001F074FA07904FF07E50129902F0AEF90D
:103C70000090216802F0B2FA8346A16801F0C6FF05
:103C8000019001F097FF074600222E4B01F090FAB9
:103C9000CDE9020101F05AFA06904FF07E501299D8
:103CA00002F094F90090616801F0B0FF8346A168CA
:103CB00002F094FA019001F07DFF0022214BCDE942
:103CC000020101F075FA074601F040FA05904FF045
:103CD0007E50129902F07AF90090216801F096FF67
:103CE0008346A16801F092FF019001F063FF07464F
:103CF0000022144B01F05CFACDE9020101F026FA32
:103D000004904FF07E5200210798FFF76BFF286068
:103D10004FF07E5200210698FFF764FF30604FF0AD
:103D20007E5200210598FFF75DFFC9F800004FF0B3
:103D30007E5200210498FFF755FFCAF8000009B031
:103D4000BDE8F08F0000D03F10B50446FEF7F6F84E
:103D50004FF4E13000F079F947214FF6FF70FFF79B
:103D60008EFD632143F6A030FFF710FA41F61F41A4
:103D7000642000F00DF80020FFF796FB0020FFF70D
:103D8000B4FB0020FFF7D2FB0020FFF7F0FB10BDD3
:103D90007FB505460C4601210420FCF762FFADF813
:103DA0000850ADF804400020ADF80A00ADF8060058
:103DB00001A97D48FDF784F8012211467A48FDF7F4
:103DC000F6FB1E208DF8000000208DF80100032076
:103DD0008DF8020001208DF803006846FCF7B5FB62
:103DE00001217148FDF7C8FB7FBD08B50020009098
:103DF00001216D48FDF789FE40B101216A48FDF7B8
:103E000095FE694669480068FFF7BAF8009838B12E
:103E10004FF0805066490860BFF34F8FBFF36F8F3C
:103E200008BD1FB54FF080404142624A624BCDE968
:103E30000032CDE90210614B614A4FF08141614887
:103E4000FFF756FA4FF0804041425A4A5A4BCDE9AB
:103E50000032CDE90210594B594A4FF081415A487E
:103E6000FFF746FA59485A49524A5A4BCDE90032AF
:103E7000CDE90210584B002258495948FFF738FA4B
:103E8000524853494B4A534BCDE90032CDE9021019
:103E9000514B002251495348FFF72AFA4B484C49ED
:103EA000444A4C4BCDE90032CDE902104E4B4F4A0B
:103EB00011464F48FFF71CFAFEF7E2FE3B49086047
:103EC00071E04C494C4800F012F94C4A4C494D48BD
:103ED000FFF7C5FC4749086801F06CFE064600F094
:103EE000DFFD80464349486801F064FE064600F065
:103EF000D7FD08FB00F5284602F01CF804462146D1
:103F00003F48006801F0F6FE3F4908603948026802
:103F10003C4801682B48FFF706FA3C4908603548E1
:103F20004268384841682848FFF7FDF9374948603A
:103F300031480268084601682948FFF7F4F9344916
:103F400008602D484268314841682648FFF7EBF980
:103F50002F494860284882682C4881682448FFF728
:103F6000E2F92B498860084627490968294B2A4A03
:103F7000CDE9001029492A48FFF753FE2848006878
:103F8000FFF792FA24480068FFF7D0FA2348006848
:103F9000FFF7ABFA1F480068FFF7E9FA4FF0FF316F
:103FA0000120FEF77CFE8CE700080040A000002006
:103FB00004ED00E00AD7233C89D25E3A96430B3DDC
:103FC00000009040F04500201C4600209A99993E40
:103FD0009A9999BE6F12033A17B751390AD7233D00
:103FE00048460020744600200AD7A33BCDCC4C3E67
:103FF000CC460020C0450020B4450020AC00002085
:10400000A4000020CC450020A8000020D8450020B6
:10401000E44500209C00002098000020940000202F
:1040200090000020014600BF704770B504460D4661
:1040300000BF4021C948FDF727FF0028F9D0E1B2B1
:10404000C648FDF7B3FE204670BD10B586B00446E5
:1040500001218804FCF705FE01210820FCF7F4FD8E
:10406000BE48FDF767FD4FF48060ADF814000320F3
:104070008DF8160018208DF8170005A9B848FCF730
:104080002DFB4FF40060ADF8140004208DF81700EC
:1040900005A9B348FCF722FB01940020ADF8080005
:1040A000ADF80A00ADF80C00ADF810000C20ADF82A
:1040B0000E0001A9A948FDF780FD27208DF800001A
:1040C00003208DF801008DF8020001208DF8030017
:1040D0006846FCF73AFA012240F225519F48FDF765
:1040E00004FE01219D48FDF7F4FD06B010BD10B59A
:1040F0009C4AD2E900439268C1E900438A609A4C25
:10410000D4E90032A468C0E90124036010BD08B5F9
:104110000020009040F225519048FDF7CBFE012889
:104120001FD18E48FDF746FE9049914A1278885477
:104130008F48007838B908460078552803D0002009
:104140008B49087004E08A480078401C8849087050
:10415000874800780B2804D1694686480068FEF736
:104160000FFF009838B14FF0805083490860BFF3CB
:104170004F8FBFF36F8F08BD1FB5FEF781FD7D49DF
:104180000860EAE07A4800780B287DD17B487749BF
:104190000A6802604A6842600A890281897A8172EB
:1041A000002073490870754800785528EDD1734890
:1041B0004078522802D0532867D175E06F4989783A
:1041C0006E4AD27841EA022108B201F0B3FE0190B2
:1041D00001F0F0FC82460022694B01F0A5F806468A
:1041E0000022684B01F0BCFA8046674A674B01F039
:1041F000B7FA04460022664B01F096F8CDE90201B9
:1042000000F0A4FF574908605C4909795B4A52797C
:1042100041EA022108B201F08DFE019001F0CAFCD2
:104220000022574BCDE9020101F07EF880460022C2
:10423000544B01F095FA0646534A544B01F090FA5C
:1042400004460022524B01F06FF8824600F07EFFD8
:104250004449486049498979484AD27941EA02216A
:1042600008B201F067FE019001F0A4FC06460022AE
:10427000434B01F059F880460022424B01F070FA9E
:104280000446414A414B01E062E05FE001F068FA18
:1042900000223F4BCDE9020101F046F8824600F0D2
:1042A00055FF3049886052E034498978334AD278E2
:1042B00041EA022108B201F03DFE824601F07AFC9B
:1042C000804600222E4B01F02FF806462E4A2F4B37
:1042D00001F046FA044600F039FF234908602749F7
:1042E0000979264A527941EA022108B201F022FEF8
:1042F000824601F05FFC80460022214B01F014F859
:104300000646214A214B01F02BFA044600F01EFF1D
:104310001549486019498979184AD27941EA022138
:1043200008B201F007FE824601F044FC0646002276
:10433000134B00F0F9FF0446134A144B01F010FA36
:10434000804600F003FF0849886000E000BF00BF1E
:104350004FF0FF310120FEF7A2FC13E700480040B8
:10436000000C0140104700201C470020F8460020A8
:10437000B0000020B800002004ED00E0034700205A
:104380000000E04000409F401F85EB51B81E0940EF
:10439000008066407047704770477047704710B59F
:1043A00000F008F8006810BD10B5044600F002F8EF
:1043B000046010BD0048704728470020004870473F
:1043C000284700207546FFF7F9FFAE46050069460D
:1043D000534620F00700854618B020B5FCF79EF83C
:1043E000BDE820404FF000064FF000074FF00008F6
:1043F0004FF0000B21F00701AC46ACE8C009ACE877
:10440000C009ACE8C009ACE8C0098D467047044655
:10441000AFF300802046FBF7D2FE490050EAC120EE
:1044200018BF04204A0D18BF40F0010040F2FF728F
:10443000B2EB515F08BF40F00200012808BF052021
:1044400070474100080218BF04200A0E18BF40F050
:1044500001004FF07F4232EA010108BF40F0020044
:10446000012808BF052070472DE9F74F144696B084
:104470000021C4E902111799089121F00045CA49A9
:104480008D4206DC1799C4E9000119B00020BDE88F
:10449000F08FC649DFF818A3A9423CDD0899C54E44
:1044A0000029C54FC54A1799534619DD01F098FAFE
:1044B000554506D0C24AC34B01F092FAC4E9000147
:1044C0000AE04FF0D352BF4B01F08AFA32463B4626
:1044D00001F086FAC4E9000119B00120BDE8F08FAF
:1044E00000F066FE554506D0B54AB64B00F060FEBA
:1044F000C4E900010AE04FF0D352B24B00F058FE7D
:1045000032463B4600F054FEC4E9000119B04FF0BA
:10451000FF30BDE8F08FAC498D42179978DC21F06F
:1045200000488346A94AAA4B414601F019F90022E6
:10453000A84B00F03DFE01F04FF8099001F0A9F8FA
:1045400006460F469D4A534601F00AF95A4643462D
:1045500001F03AFA80468A46994A9A4B30463946E3
:1045600001F0FEF82A0D01250B924246534601F058
:104570002BFA032DC4E9000139D00B98C1F30A517D
:10458000401A05EB45111139884230DD9248C34687
:10459000784400EB0510CDF81CA00C90D0E9002366
:1045A0003046394601F0DCF8CDE9020102460B46FF
:1045B0005846079901F014FA80468A4602460B468F
:1045C0005846079901F00CFADDE9022301F008FAD8
:1045D00083460C9803913946D0E90223304601F016
:1045E000BFF85A46039B01F0FBF96D1CBDE7089824
:1045F0000028A2BF099819B0BDE8F08F616881F06A
:1046000000416160099819B04042BDE8F08FFFE7B2
:10461000C1F3130141F480110E911799C1F30A51AE
:10462000A1F2F532511102F01F08C8F120021292D6
:1046300000220C920D92694A7A4402EB810101F149
:10464000140C0DA95FF00607DCF80020DCF804501C
:1046500002FA08F3129AD1F800A025FA02F21A43DE
:104660000E9BA2FB0356A2FB00329A4415449A45C6
:1046700034BF4FF0010B4FF0000B51F8043C05EB39
:104680000B0E7344954234BF012200221644BBF145
:10469000000F02D0AB4202D903E0AB4201D20122AB
:1046A00000E000223244C1F800A041E90223091FC2
:1046B000ACF1040C7F1EC7D10898DDE90A6500F152
:1046C0000050800F11900898099F800000F0E1FFD2
:1046D00080468A46384600F0F3FF6FF01D0201F075
:1046E00024FE07463046059100F0EAFF6FF03D02D8
:1046F00001F01BFECDE90310284600F0E1FF6FF04A
:104700005D0201F012FE064602460B460191DDE90C
:10471000031000F04DFD3A46059B00F049FD42466E
:10472000534600F045FD00200D4683464246534661
:1047300001F056F93A46059B01F052F9DDE90332E2
:1047400001F04EF93246019B01F03EF9DFF894800A
:10475000234A434601F004F806460F46224A234BFB
:104760005846294600F0FCFF32463B4600F020FD4B
:104770000F4606464FF0A84243465846294600F0E9
:10478000EFFF32463B4600F013FD179A12F0004F40
:1047900004D0119A81F0004152421192C4E9000103
:1047A000119819B0BDE8F08FFB21E93F7CD9024098
:1047B000FB21F93F7370032E8A19A33B000040547C
:1047C0003163621A61B4D03DFB21394183C8C96DA0
:1047D000305FE43F0000E03FE41F00006C1F00007A
:1047E000182D4454FB21F93D3326A611460B113CEC
:1047F0002DE9FF4D21F0004807460C46B8F1795FDE
:1048000008DA00F0E9FE002801BF0020324904B0B8
:10481000BDE8F08D3A4623461046194600F0A0FF49
:10482000054602462D480E460B460621784400F008
:104830005DF82A46334600F093FFDDE90223824605
:104840008B463846214600F08BFF04460F46524601
:104850005B462846314600F083FF22463B4601F086
:10486000BFF807468A464FF0FF322846314601F02E
:104870005CFD1B4A90450ADA3A46534601F0B0F80F
:1048800004B00022BDE8F04D134B01F09DB8154A6D
:104890004245A8BFA8F500154FF00004B8BF124D5F
:1048A00022462B4601F09CF80646884622462B46B7
:1048B0000020094901F094F804460D463A46534653
:1048C0003046414601F08CF804B022462B46BDE844
:1048D000F04D01F079B800000000F03F181D000015
:1048E0003333D33F0000E93F0000D23F2DE9F041D0
:1048F0004F1E00EBC7010446D1E9000115461E46D4
:1049000037F006020DD02A46334600F029FF7F1EFD
:1049100004EBC703D3E9002300F04AFC37F006029A
:10492000F1D1022F25D0042F13D0062F18BFBDE8D8
:10493000F0812A46334600F013FFD4E90A2300F041
:1049400037FC2A46334600F00BFFD4E9082300F079
:104950002FFC2A46334600F003FFD4E9062300F07B
:1049600027FC2A46334600F0FBFED4E9042300F07E
:104970001FFC2A46334600F0F3FED4E9022300F080
:1049800017FC2A46334600F0EBFED4E90023BDE8CD
:10499000F04100F00DBC00002DE9FF4D054621F06F
:1049A000004084B00C46B0F1795F0BDA2846FFF77F
:1049B00034FD042808BF00F065F8284608B02146F9
:1049C000BDE8F08D2A460B46104600F0C9FE0646AB
:1049D0000F462A46234600F0C3FE804626488A46F4
:1049E00032463B4605217844FFF780FF8346109806
:1049F000029160B3214A224B4046514600F0B0FE7E
:104A0000CDE900015A4640465146029B00F0A8FEFF
:104A100082468846DDE906014FF0FF3201F085FC51
:104A20005246434600F0DCFF32463B4600F098FE1B
:104A3000DDE9062300F0D4FFDDE9002300F0D0FF1C
:104A400008B02A462346BDE8F04D00F0BDBF0B4636
:104A50005A463046394600F083FE084A084B00F0BB
:104A6000A7FB4246534600F07BFE08B02A46234689
:104A7000BDE8F04D00F09CBB561C00004955555553
:104A80005555C5BF024A0020110701F04EBC000079
:104A900001FDFFFF6FF05E01080701F074BC00002C
:104AA00000B5284B21F0004287B09A42DCBF0022BB
:104AB000134631DD244B9A420DD168B94FF0010005
:104AC000FFF772FC002207B01346104611465DF84E
:104AD00004EB00F029BC06DB07B04FF001025DF8E3
:104AE00004EB01F022BC02AAFFF7BEFC10F00301A8
:104AF00004BF0DF1080CBCE80F000DD00120012906
:104B00000ED0022914D00DF1080C0090BCE80F0063
:104B1000FFF742FF07B000BDFFF76AFE07B000BD18
:104B20000DF1080C0090BCE80F00FFF735FF05E021
:104B30000DF1080CBCE80F00FFF75AFE07B081F03A
:104B4000004100BDFB21E93F0000F07F2DE9F04D61
:104B50000F460E46A0F50001804604464FF0007057
:104B600084B04FF07E554FF0000B00EB47004FF044
:104B70007F4AB1F1FE4F04D2B0F1804F80F0FA804D
:104B800041E0B0F1804F3ED304F1FF40B0F1FE4F61
:104B90001FD200BF28F00048C6F3C75044467F2804
:104BA00009DB97287BDAC0F19600012101FA00F0B9
:104BB000411E314209D00120FFF7F6FB04B000216D
:104BC000BDE8F04D084601F095B8304218BFFE4DE3
:104BD000D0E0600000281CBF4FF08070B0EB440FA5
:104BE0000BD91B21404601F0CEFB804604466FF0F6
:104BF0001A0B10F0004FCDD1BCE0A4F50000B0F1CD
:104C0000FE4F4CD319E0B0F1007F10D3002138469D
:104C100001F032F905D16000B6D0BAEB440FB3D938
:104C2000A5E006F0004040F0FC563746ACE7B0F196
:104C3000807F38BFA6F50007A6D324F000406FF0B0
:104C4000FF42E24B811899420FD326F000410A44FB
:104C500093420AD8B4F17E5F7DD072007BD0B0F170
:104C6000FF4F02D8B1F1FF4F06D904B03946404694
:104C7000BDE8F04D00F0CABFB4F1FF4F10D0C6F34D
:104C8000C7507F2809DB972812DAC0F1960001216E
:104C900001FA00F0411E314206D0002009E069E02F
:104CA00016F0004F5ED127E0304218BF012000D13E
:104CB000022014F5000F13D01CB3B4F1004F26D01E
:104CC00014F1814F53D04FF0FE40B0EB440F94BF2E
:104CD00001200020012101EBE671884242D10BE066
:104CE00016F0004F02D001283ED03BE0012802BF61
:104CF000B74804B0BDE8F08D4FF0FF4004B0BDE808
:104D0000F08D16F000400ED104B0BDE8F08DB6F184
:104D1000FF4F27D016F5000F05D016F0004F18D022
:104D200008B101280AD00220FFF73EFB04B00021A1
:104D3000BDE8F04D4FF07E5000F0DCBF0220FFF7E1
:104D400033FB04B04146BDE8F04D4FF07E5000F01B
:104D5000D1BF002800E00AE004BF04B0BDE8F08D38
:104D6000012801D00020CFE74FF00040CCE74FF002
:104D70007E50C9E797482044B0F5005F44D84046CC
:104D800000F018FF0022944B00F02AFE00F0DEF93C
:104D900004466FF0010101F0F6FA904901F013FAB0
:104DA000214601F013F94FF07C5101F00CFA064650
:104DB0002146084601F00AF980F00040314601F032
:104DC00005F980468649204601F000F906468549E6
:104DD000404601F0FBF880468349204601F0F6F892
:104DE000414600F013FF04460146304600F00EFF36
:104DF00000F5006B6FF30B0B5946304601F0EEF9EE
:104E0000214600F003FFD4E004F58020C00C00F040
:104E10000F06C0F307107F38A4EBC054834430461C
:104E200001F088F86FF0030101F0ADFA4FF07E5108
:104E300000F0ECFE01460290204601F0CFF901900F
:104E40002046029900F0E2FE00F500686FF30B08BF
:104E500000904146029801F0C1F9214600F0D6FECB
:104E600002904FF07E50009900F044FF0146009000
:104E7000019801F0ABF800F500646FF30B042046D5
:104E8000029901F0A3F802904146204601F09EF8F5
:104E9000019901F098F9029901F0A0F9009901F047
:104EA00095F801460090204600F0B0FE014601F062
:104EB0008DF880464D4901F089F8484900F0A6FE7A
:104EC000414601F083F880460021204601F05BFA5C
:104ED00001902046009900F099FE414601F076F8D5
:104EE00004460021009801F04EFA214600F08EFEA3
:104EF00080460146019800F089FE00F500646FF3DA
:104F00000B042146019801F069F9414600F07EFE4C
:104F100080463749204601F059F80090354940460F
:104F200001F054F880463449204601F04FF84146DC
:104F300000F06CFE80460146009800F067FE00F528
:104F400000646FF30B042146009801F047F94146D5
:104F500000F05CFE80462948784450F8361000EB9B
:104F6000C600019146684FEA0B1000F0E3FF009085
:104F70003146404600F04AFE214600F047FE0199C6
:104F800000F044FE009900F041FE00F5006B6FF365
:104F90000B0B5846009901F021F9019901F01EF917
:104FA000214601F01BF9314601F018F9414601F0A4
:104FB0000AF907F5006480466FF30B042146384672
:104FC00001F00CF907461BE0000080BFFFFF3F0027
:104FD000000080FF001080C00000F03FABAAAA3E96
:104FE00000B0B8413BAAB841D49A38BB7EE24C3EEF
:104FF00000B038423BAA3842D49AB8BBA81400008B
:105000002146584600F0E2FF06463946204600F0A9
:10501000FDFD414600F0DAFF04463946584600F0EF
:10502000D5FF214600F0F2FD07460146304600F06C
:10503000EDFD00F500646FF30B042146304601F0EE
:10504000CDF8394600F0E2FD80460146204600F0EA
:10505000DDFD00F045FF0746061100F06BFF21461D
:1050600001F0B1F8414600F0D1FD0446314900F0AD
:10507000ADFF314900F0CAFD214600F0A7FF2F49DE
:1050800000F0C4FD214600F0A1FF01462C4807F0C6
:105090000F04784450F8240000F098FF294979441F
:1050A00051F8241000F0B2FD2749794451F824103A
:1050B00000F0ACFD06F17D01FC2908D2314601F07B
:1050C00062F904B02946BDE8F04D00F07FBF06F15B
:1050D000BF01B1F5BF7F14D8314601F054F929461C
:1050E00000F074FF0446BAEB440F16D060000AD0FB
:1050F0002046FFF7A6F9042808BFFFF7CBFC20469F
:1051000002E6002E09DA0220FFF74EF9FFF7C2FC93
:105110000146284661F31E00F6E50220FFF744F938
:1051200061214FF0E04001F02EF90146284661F37D
:105130001E00E9E5FC596337C9FF753A1872313D25
:105140006E14000022140000D613000021F000426B
:10515000A2F16052B2F5801F01F0004328BFD2F1E6
:105160007F6C0BD95FEA001C43EAC20242EB50702D
:1051700018BF704728BF20F001007047B2F5801FAC
:10518000BCBF184670474FEA410C1CF5001F02D205
:10519000084600F0E2BF70B500F08CFB000000890B
:1051A000FFF7F6BF4FF00040A0F580007047000009
:1051B00010B591EA030F48BF83F0004300F1188453
:1051C000841A71EB030C05D2121943EB0C03001B7C
:1051D00061EB0C01DFF824E14FEA1154A4EB135CFE
:1051E0001EEA430F18BF9EEA445F73D023EA0E0302
:1051F000DCF1200E21EA045143F4801332D322FA69
:105200000CFE10EB0E0023FA0CFE41EB0E01CCF16C
:10521000200E03FA0EFE10EB0E0051F10001B1F565
:10522000801FCCF1200E32D201EB045112FA0EF2A3
:10523000BDE8104058BF7047401C38BF5FEA4202CB
:1052400018BF7047002814BF20F0010041F1000191
:105250004FEA410313F5001F38BF7047A1F1C04169
:1052600000F076BB012A43EB0302ACF1200CDCF129
:105270001F0E32BF4FF0000E23FA0CF310EB0300A9
:1052800041EB0451B4EB115FD0D0A1EB045101F517
:10529000801149085FEA300001EB04510ED350F150
:1052A000000038BF12FA0EFE08D1BDE81040C9E771
:1052B000401C38BF5FEA4202CAD1C3E7BDE81040D4
:1052C0004FEA410313F5001F38BF7047A1F1C041F9
:1052D00000F03EBB9EEA445F08D011EA5E0FBDE8D5
:1052E000104004BF01F0004100207047BDE81040AD
:1052F00070B500F0DFFA00BF64FBBE3E0000E0FFC7
:1053000002494FF0000000F0DEBF00BF0000F87F50
:10531000491058BFC1F140415B1058BFC3F1404331
:105320008B42EFF3008070472DE9C04130B4DFF8C5
:10533000A0C23CEA111418BF3CEA131400F0EC8040
:1053400081EA03051CEA111444EAD57418BF1CEA6B
:10535000131500F0C780A4EB05044FF0004545EAA3
:10536000C12145EAC32341EA505143EA525304F1B3
:105370007F74994204F500344FEAC0204FEAC222FC
:1053800008BF904200F09C804FEA13650FF2401670
:10539000765D4FEA134506FB05F7C7F1807706FBFC
:1053A00007F74FEAD737A7FB03687642C8F580387E
:1053B000A7FB06CE38BFA8F1010807FB08E64FF0AF
:1053C000000EA6FB028CE6FB03CEDCF1000CCEF156
:1053D000004E38BFAEF1010EA6FB0C584FF000078F
:1053E0004FF00005E6FB0E87A1FB08C6A0FB07CE29
:1053F00016EB0E0645F10005E1FB076515F1E04EE1
:105400007EBFA4F580345FEA46066D4116F1800741
:1054100045F100054FEA17274FEA066647EA056798
:10542000A6F1DE46B6F1805F4FEA15251FD9384652
:1054300024F0010C05EBC471BCF1FE6F01EB0C1103
:1054400002D8F0BCBDE8008124425CBF01F5801E9B
:105450009EEAC47F02D4F0BCBDE80081244238D467
:10546000F0BCA1F1C041BDE8004100F071BA4FEAC3
:10547000D22242EA43524FEAD323A7FB02864FEAE5
:10548000D02040EA415007FB03661EEA0E0F4FEAA8
:10549000D12105FB026658BFA6EB0056B6EB0056BD
:1054A0004FEA520E4EEAC37E18EB0E0E56EB530E29
:1054B000BDD518EB02085E417F1C55F10005B6E72B
:1054C0004FF480154FF000074FF000064FF0000832
:1054D000ADE7F0BC4FF0000001F1C04101F0004128
:1054E000BDE8008111EA0C1F0CEA131500D00CE096
:1054F00013EA0C1F00F025804FF00000F0BC81EA99
:10550000030101F00041BDE80081F0BCBDE80041AD
:1055100081EA030100F01CBAF0BCBDE8004170B59F
:1055200000F0C8F9097EFC3E00F007B881EA0301EB
:105530004FF0000001F00041704781EA030100F0E4
:1055400007BAF0BCBDE800414FF0000021497047A8
:10555000FFFDFBF9F7F5F4F2F0EEEDEBE9E8E6E438
:10556000E3E1E0DEDDDBDAD8D7D5D4D3D1D0CFCDBF
:10557000CCCBCAC8C7C6C5C4C2C1C0BFBEBDBCBBF8
:10558000BAB9B8B7B6B5B4B3B2B1B0AFAEADACABF3
:10559000AAA9A8A8A7A6A5A4A3A3A2A1A09F9F9ECD
:1055A0009D9C9C9B9A99999897979695959493937F
:1055B000929191908F8F8E8E8D8C8C8B8B8A898916
:1055C0008888878786858584848383828281818099
:1055D0000000FF070000F87F4FEA41034FEA5353F2
:1055E000A3F58063D3F11E03C8BFD3F1210C0CDDFA
:1055F0004FF0004242EAC12242EA505232FA03FC22
:105600008CEAE17CACEBE1707047102BC4BF00204A
:10561000704703F5787CBCF1FF3F04D06FF0004287
:1056200082EA2100704770B500F044F94992248065
:1056300000207047F2E700004FEA1153A3F58063A2
:10564000D3F11E03A8BFD3F1200C08DB4FF00042BA
:1056500042EAC12252EA505232FA03F0704709423C
:105660000BD4102BC4BF0020704703F5787CBCF12D
:10567000FF3F05D04FF0FF3070474FF000007047FC
:1056800070B500F017F900BF4992248000207047E0
:10569000F0E710F0004248BF4042B0FA80F310FA41
:1056A00003F10AD0C3F11D0303F580634FEA4150B3
:1056B00002EB035202EBD12170474FF0000070471C
:1056C000B0FA80F310FA03F10AD0C3F11D0303F519
:1056D00080634FEA41504FEA035202EBD1217047F9
:1056E0004FF000007047000051EA030C17D41CF57E
:1056F000801F58BFBCF5801F00F10680994218BF7B
:10570000704708BF9042704707D711F5801F58BFF8
:1057100013F5801F19D499427047894270471CF5D0
:10572000801F08D5BCF5801FF7D58B4218BF704786
:1057300008BF824270474FF4001C1CEB410F38BF7A
:105740001CEB430F01D28B42704770B500F0B2F8EA
:10575000922449004FF000514FF08053FFF7D8BD1D
:10576000DFF848C170B51CEA111E1EBF1CEA1315F4
:105770009EEA0C0F95EA0C0F00F06F8081EA03049B
:1057800023EA4C134EEAD47E21EA4C1141F48011F5
:1057900043F48013AE44A1FB024CA0FB0365AEF1C1
:1057A0007F7E361955EB0C05A1FB034C4CF1000331
:1057B000A0FB021C16EB0C06654153F100030942E5
:1057C00018BF46F0010613F4007F0BD14FEA0331F6
:1057D0004FEA0530340341EA155140EA16506FF0A4
:1057E00003020AE04FEAC3214FEAC520F40241EA6E
:1057F000555140EA56506FF0020202EB2E4201EB87
:10580000025585EACE710AD05FEA440C18BF24F035
:10581000004450F1000041F1000120EAD47040F250
:10582000FE7C624500D270BDA84214BF4FF0804498
:105830004FF04044002E08BF0024BEF1806FA8BF87
:10584000A1F1C041BDE8704080F282804FF00000BD
:1058500001F1C04101F0004170479EEA0C0F0CEAD3
:10586000131518BF95EA0C0F06D04FF0000081EA1F
:10587000030E0EF0004170BD00F01CF88900013EDF
:1058800000F007B800F009B84FEA430C5FEA5C5C2F
:1058900008D081EA030100F05BB84FEA410C5FEAEF
:1058A0005C5CF6D14FF00000014970470000FF0733
:1058B0000000F87F0EF1020E2EF0030E5EF8046B6E
:1058C000364205D4012A43EB030515F5001F12D813
:1058D000012841EB010C1CF5001F0CD80ED14FEA3A
:1058E000D17C15F5001F0CEB4C0C0CF1020C08BF21
:1058F0004CEBD37C04E04FF0080C01E04FEAD37C82
:105900000CEB4C0526FA05F606F00706B6F1040C7A
:1059100006D20EEB860CBDE870404CF0010C6047DF
:10592000DFE80CF0090B02024FF000414FF00000DD
:10593000A1F5002170BD19461046012851EB010464
:1059400018BFD4F5001484BF002001F0004170BDE1
:105950000808A0F500114FEA3101704753EA010C25
:1059600017D41CF5801F58BFBCF5801F00F10680BE
:105970008B4218BF704708BF8242704707D713F5A4
:10598000801F58BF11F5801F19D48B4270479B426E
:1059900070471CF5801F08D5BCF5801FF7D59942CC
:1059A00018BF704708BF904270474FF4001C1CEBB3
:1059B000430F38BF1CEB410F01D2994270470FB41F
:1059C0000CBC03BCFFF7C1BE91EA030F10B581F018
:1059D00000413FF5F5AB83F0004300F009B800004B
:1059E00010B591EA030F48BF83F000433FF5E8ABE1
:1059F000841A71EB030C07D212198CF0004C43EBA4
:105A00000C03001B61EB0C01DFF8A4E14FEA115419
:105A1000A4EB135C1EEA430F18BF9EEA445F00F03C
:105A2000B08023EA6E03524221EA0451C3EB6E03B5
:105A300038BF5B1EDCF1200E25D322FA0CFE10EBE2
:105A40000E0043FA0CFE41EB0E01CCF1200E03FADE
:105A50000EFE10EB0E0051F10001CCF1200E29D406
:105A600012FA0EF201EB0451BDE8104058BF704726
:105A7000401C1CBFB2F1004F704700280CBF491CEE
:105A800020F00100704712EB020E43EB030218BF37
:105A90004FF0010E4EEA4202ACF1200CDCF11E0E7A
:105AA00054D943FA0CFE10EB0E0051F1FF31CCF14A
:105AB0001E0ED5D50EF1010E12FA0EFE404141EB3D
:105AC000010101EB445C5FEA5C5C10D910EBDE7015
:105AD00001EB045138BFBEF1004FBDE8104018BFC4
